:020000040800F2
:10000000680600205D01000865010008670100081E
:10001000690100086B0100086D0100080000000084
:100020000000000000000000000000006F01000858
:10003000710100080000000073010008750100084C
:100040007701000877010008770100080000000030
:100050000000000077010008770100087701000820
:100060007701000800000000770100087701000810
:100070007701000800000000770100087701000800
:1000800077010008770100080000000077010008F0
:1000900077010008000000000000000000000000E0
:1000A00000000000000000000000000077010008D0
:1000B0007701000877010008770100087701000840
:1000C00000F002F800F03AF80AA090E8000C824430
:1000D0008344AAF10107DA4501D100F02FF8AFF20D
:1000E000090EBAE80F0013F0010F18BFFB1A43F016
:1000F00001031847A0050000C0050000103A24BF06
:1001000078C878C1FAD8520724BF30C830C144BF7C
:1001100004680C60704700000023002400250026BE
:10012000103A28BF78C1FBD8520728BF30C148BF5A
:100130000B6070471FB51FBD10B510BD00F031F842
:100140001146FFF7F7FF00F075FA00F04FF803B41F
:10015000FFF7F2FF03BC00F057F8000009488047A2
:1001600009480047FEE7FEE7FEE7FEE7FEE7FEE799
:10017000FEE7FEE7FEE7FEE704480549054A064BB1
:100180007047000051050008C10000086800002009
:10019000680600206802002068020020704770474F
:1001A0007047754600F02CF8AE4605006946534688
:1001B00020F00700854618B020B5FFF7DDFFBDE849
:1001C00020404FF000064FF000074FF000084FF0BE
:1001D000000BAC46ACE8C009ACE8C009ACE8C0090B
:1001E000ACE8C00921F007018D46704710B5044600
:1001F000AFF300802046BDE81040FFF7A8BF000025
:10020000004870470800002001491820ABBEFEE7F7
:1002100026000200704700008EB00D900C910D98E2
:1002200040680B900D9880680A900D98C0680990FE
:100230000D98006908900D98406907900D988069A5
:1002400006900D98C069059000200390012002904F
:10025000032001904FF0011000900C98008804904A
:10026000FFE70498002865D0FFE79DF81000C0075D
:1002700000284ED0FFE70B98029988430C998978A3
:10028000039A914008430B900A98019988430C996E
:10029000097A039A5200914008430A9009980299FA
:1002A00088430C99897A039A9140084309900898E9
:1002B000009988430C99039A02F1100CCB780979C4
:1002C00003FA0CF3184391400843089007980099EB
:1002D00088430C99039A02F1100C4B79897903FA3F
:1002E0000CF31843914008430790069801998843FE
:1002F0000C99497A039A5200914008430690059858
:10030000029988430C99C979039A91400843059052
:10031000FFE7029840000290019880000190009849
:1003200040000090039801300390FFE704984008D4
:10033000049096E70B980D9920F01F020023C4F259
:100340000C03994208BF104648600A980D9920F0A6
:100350001F02994208BF1046886009980D9920F045
:100360001F02994208BF1046C86008980D9920F0F6
:100370001F02994208BF1046086107980D9920F0A6
:100380001F02994208BF1046486106980D9920F057
:100390001F02994208BF1046886105980D9920F008
:1003A0001F02994208BF1046C8610EB07047000096
:1003B00082B00190ADF8021001980068BDF80210FB
:1003C000084204D0FFE701208DF8010003E000207F
:1003D0008DF80100FFE79DF8010002B070470000B2
:1003E00082B001900091009A019942F01F00002311
:1003F000C4F20C03994208BF0246086890430860A3
:1004000002B0704782B0019000910098019909688C
:100410000843019920F01F020023C4F20C03994203
:1004200008BF1046086002B07047000082B001901B
:100430008DF803109DF8030040B1FFE7019A1C21DD
:10044000C4F2020108681043086007E0019A1C2109
:10045000C4F20201086890430860FFE702B07047E9
:1004600085B00C20C4F2020000688007002806D581
:10047000FFE741F20020C0F27A00049005E041F26B
:100480000020C0F27A000490FFE70C20C4F20200C2
:100490000068C00720B1FFE7049840080490FFE718
:1004A000049803900C20C4F2020000684007002862
:1004B0000DD5FFE70420C4F202000068C0F303205A
:1004C000013001900199039848430390FFE70C2005
:1004D000C4F202000068C0F301200146009140B15F
:1004E000FFE7009801280ED0FFE7009802281CD0F3
:1004F00023E040F20001C2F2000141F20020C0F20C
:100500007A00086021E003980C21C4F20201096816
:10051000C1F303110131B0FBF1F00290029840F2F7
:100520000001C2F2000108600FE040F20001C2F2D7
:1005300000014FF40040086007E040F20001C2F201
:10054000000149F640400860FFE705B07047000031
:1005500080B51C21C4F20201102008600C21C4F2F5
:100560000201002008600421C4F202010860082191
:10057000C4F2020108601021C4F2020108601421D3
:10058000C4F2020108601821C4F2020108602021AF
:10059000C4F2020108602421C4F20201086028218B
:1005A000C4F2020108602C21C4F202010860FFF7C6
:1005B00057FF80BD80B584B04FF4800001210091C9
:1005C000FFF734FF00982021ADF8041000218DF8CA
:1005D00006108DF807008DF80C108DF80E008DF8C0
:1005E0000D000020C4F20B0001A9FFF715FE04B0B6
:1005F00080BD000080B584B04FF40000012100915F
:10060000FFF714FF00980321ADF804108DF80600E1
:100610008DF8070000218DF80C108DF80E008DF874
:100620000D0048F20000C4F20B0001A9FFF7F4FD31
:1006300004B080BD80B582B000200190FFF7BAFF02
:10064000FFF7D8FFFFE700F001F8FCE780B50020D6
:10065000C4F20B002021FFF7ABFE90B9FFE748F290
:100660000000C4F20B000121FFF7CCFEFFE70020E1
:10067000C4F20B002021FFF79BFE08B9FFE7F6E765
:1006800007E048F20000C4F20B000121FFF7A8FECA
:10069000FFE780BDB4060008000000200400000051
:1006A000FC000008B80600080800002060060000F2
:0806B0001801000800127A0095
:040000050800015D91
:00000001FF
